:020000001628C0
:0E000600831203132B088A002A0882000800C8
:1000140003208A110A128000840AAA0A0319AB0A6F
:08002400F003031D0A28080087
:10002C00C03083120313A000F930A100A430A20049
:10003C00B030A3009930A4009230A5008230A60005
:10004C00F830A7008030A8009030A90083168601F4
:10005C0083128601AC01AD0180302D06F00080309A
:10006C007002031D3B280A302C02031854282C085C
:10007C00203E8400000886000B30FB002630FC007C
:10008C005D30FD00FD0B4828FC0B4828FB0B482875
:10009C0000000000AC0A0319AD0A3228302855289C
:02400E004A2F37
:00000001FF
