:020000001628C0
:0E000600831203132B088A002A0882000800C8
:1000140003208A110A128000840AAA0A0319AB0A6F
:08002400F003031D0A28080087
:10002C00C03083120313A000F930A100A430A20049
:10003C00B030A3009930A4009230A5008230A60005
:10004C00F830A7008030A8009030A90083168601F4
:10005C00831286018316870183128701F101F20155
:10006C0080307206F00080307002031D3F280A3089
:10007C00710203188728F301F40180307406F00034
:10008C0080307002031D4C280A3073020318832839
:10009C00F501F60180307606F00080307002031D09
:1000AC0059283230750203187F2807147108203E36
:1000BC008400000886001A30FC00F830FD00FD0BAF
:1000CC006528FC0B65280000071087147308203E78
:1000DC008400000886001A30FC00F830FD00FD0B8F
:1000EC007528FC0B752800008710F50A0319F60A11
:1000FC005028F30A0319F40A4328F10A0319F20AE7
:06010C0036283428882883
:02400E004A2F37
:00000001FF
