:02000000CE2808
:10000600710DF80DF90D7408F8027508031C750FCB
:10001600F902F00DF10D0F30FC00710DF80DF90D20
:100026007408701C1C28F8027508031C750FF90269
:100036002128F80775080318750FF907F00DF10D5B
:10004600FC0B102870182D287408F807750803187B
:08005600750FF9070000080016
:0E005E00831203133D088A003C08820008004C
:10006C008312031307144008243E84000008860002
:10007C001A30FC00F830FD00FD0B4228FC0B422826
:10008C000000071087144208243E840000088600F4
:10009C001A30FC00F830FD00FD0B5228FC0B5228E6
:0600AC00000087100800AF
:1000B2002F208A110A128000840ABC0A0319BD0A81
:0800C200F003031D592808009A
:1000CA00831203137408003A031D74287508003A52
:1000DA00031D7428FF30F0007F30F100CD28831211
:1000EA000313FD01F901F8017108700403190034C2
:1000FA0071087506FA00FA1BFD09FB01F51F8A282B
:10010A00F409F509F40A0319F50AF11F9128F0090F
:10011A00F109F00A0319F10A71087504FA00FA1BC9
:10012A00A62803207B18B928FD1F0034F009F1091D
:10013A00F00A0319F10AF809F909F80A0319F90A80
:10014A000034F51FB528F11BB1287108F9007008B1
:10015A00F800F101F0019928F101F001F00A0034E8
:10016A00F109F009FB0A9628F80A0319F90A740832
:10017A007802031D992875087902031D9928F90147
:10018A00F801F00A0319F10AF11F99280000FF3457
:02019A0008005B
:10019C0083120313A001A101A201A301C030A4008A
:1001AC00F930A500A430A600B030A7009930A80003
:1001BC009230A9008230AA00F830AB008030AC003D
:1001CC009030AD00AE01AF01B001B101B201B3018D
:1001DC00B401B501B601B701B801B90183168601A6
:1001EC00831286018316870183128701FF308316E1
:1001FC008800890183128901081CAE29A001A10184
:10020C00091080302306F00080307002031D102985
:10021C006430220203183B2980302306F000803022
:10022C007002031D1B2900302202031C3B290A30DB
:10023C00F4000030F5002208F0002308F1006520DE
:10024C007008BA007108BB000A30F4000030F500E9
:10025C002208F0002308F10065207808F0007908E6
:10026C00F1007008BE007108BF003A08C0003B08DE
:10027C00C1003E08C2003F08C3003620B601B701DA
:10028C0080303706F00080307002031D4F290A3091
:10029C00360203189029081F6E290230FB002B3000
:1002AC00FC00B030FD00FD0B5929FC0B5929FB0B50
:1002BC0059290000081F6529A20A0319A30A3A0844
:1002CC00C0003B08C1003E08C2003F08C3003620F6
:1002DC00881F8C290230FB002B30FC00B030FD0055
:1002EC00FD0B7629FC0B7629FB0B76290000881F69
:1002FC0083290130A202031CA3033A08C0003B0867
:10030C00C1003E08C2003F08C3003620B60A0319DC
:10031C00B70A462900302106031D96290030200615
:10032C00031DA0292208B8002308B9002208B40034
:10033C002308B5001A30FC00F830FD00FD0BA42991
:10034C00FC0BA42900003808AE003908AF00732A52
:10035C000130A0000030A10080303106F000803068
:10036C007002031DBB29643030020318E62980306B
:10037C003106F00080307002031DC62900303002B7
:10038C00031CE6290A30F4000030F5003008F000B8
:10039C003108F10065207008BA007108BB000A3002
:1003AC00F4000030F5003008F0003108F100652051
:1003BC007808F0007908F1007008BE007108BF00E1
:1003CC003A08C0003B08C1003E08C2003F08C30009
:1003DC003620B601B70180303706F000803070024D
:1003EC00031DFA290A30360203183B2A081F192A62
:1003FC000230FB002B30FC00B030FD00FD0B042A5A
:10040C00FC0B042AFB0B042A0000081F102AB00A5C
:10041C000319B10A3A08C0003B08C1003E08C200EB
:10042C003F08C3003620881F372A0230FB002B30D0
:10043C00FC00B030FD00FD0B212AFC0B212AFB0B2C
:10044C00212A0000881F2E2A0130B002031CB103A0
:10045C003A08C0003B08C1003E08C2003F08C30078
:10046C003620B60A0319B70AF12900302106031DFC
:10047C00412A01302006031D4B2A3008B4003108F4
:10048C00B5003008B2003108B30035082F06031D43
:10049C00512A2E083406031D732A091089141530AD
:1004AC00FB004B30FC00BE30FD00FD0B5B2AFC0B4F
:1004BC005B2AFB0B5B2A0000891009151530FB0029
:1004CC004B30FC00BE30FD00FD0B6A2AFC0B6A2A87
:0E04DC00FB0B6A2A0000091109140229742A78
:02400E004A2F37
:00000001FF
