:020000001628C0
:0E0006008312031342088A004108820008009A
:1000140003208A110A128000840AC10A0319C20A41
:08002400F003031D0A28080087
:10002C00CF3083120313A000FF30A100C730A20011
:10003C00A330A300C130A4008630A500FF30A60079
:10004C009130A700A330A800E330A900FF30AA002C
:10005C008C30AB00AB30AC00EF30AD008730AE0075
:10006C009130AF00FF30B000CF30B100FF30B200A4
:10007C00C730B300A330B400C130B5008630B60031
:10008C00FF30B7009130B800A330B900E330BA00AC
:10009C00FF30BB008C30BC00AB30BD00EF30BE007D
:1000AC008730BF009130C000C301C40183168601A4
:1000BC00831286018316880183128801C301C4014F
:1000CC0080304406F00080307002031D6F281E3013
:1000DC0043020318E5284308F4004408F5004308DC
:1000EC00013EF00000300318013E4407F100700897
:1000FC00F6007108F700F00A0319F10A7008F8000D
:10010C007108F9007008013EFA0000300318013E36
:10011C007107FB00F201F30180307306F0008030B0
:10012C007002031D9B280A3072020318E12808157F
:10013C007408203E8400000886001A30FC00F83059
:10014C00FD00FD0BA728FC0BA72800000811881543
:10015C007608203E8400000886001A30FC00F83037
:10016C00FD00FD0BB728FC0BB72800008811081602
:10017C007808203E8400000886001A30FC00F83015
:10018C00FD00FD0BC728FC0BC728000008128816C1
:10019C007A08203E8400000886001A30FC00F830F3
:1001AC00FD00FD0BD728FC0BD72800008812F20AA3
:1001BC000319F30A9228C30A0319C40A662864288F
:0201CC00E62823
:02400E004A2F37
:00000001FF
