:020000008F2847
:1000060083120313F101F20100307202031D0D2861
:10001600323071020318302806140930FB001E30F6
:10002600FC00E430FD00FD0B1628FC0B1628FB0B2C
:10003600162800000610C330FB00CE30FC009D30B1
:10004600FD00FD0B2428FC0B2428FB0B24280000B4
:0C0056000000F10A0319F20A0728080054
:1000620083120313F101F20100307202031D3B28D7
:100072003230710203185F2806141730FB00533028
:10008200FC003730FD00FD0B4428FC0B4428FB0B21
:100092004428000000000610B530FB009A30FC0036
:1000A2004930FD00FD0B5328FC0B5328FB0B532852
:0E00B20000000000F10A0319F20A35280800C8
:1000C00083120313F101F20100307202031D6A284A
:1000D0003230710203188E2806141030FB003930BC
:1000E000FC000D30FD00FD0B7328FC0B7328FB0B8F
:1000F0007328000000000610BC30FB00B430FC0088
:100100007330FD00FD0B8228FC0B8228FB0B82283C
:0E01100000000000F10A0319F20A642808003A
:10011E0083160313860103201530FB004B30FC00C1
:10012E00BE30FD00FD0B9928FC0B9928FB0B99287E
:10013E00000060201530FB004B30FC00BE30FD008F
:10014E00FD0BA728FC0BA728FB0BA72800003120CE
:04015E009228B0280B
:02400E004A2F37
:00000001FF
