:020000002528B1
:0E0006008312031325088A00240882000800D4
:1000140003208A110A128000840AA40A0319A50A7B
:08002400F003031D0A28080087
:0A002C0083120313061006110800EA
:0A00360083120313061406110800DC
:0A00400083120313061006150800D2
:10004A0083120313A001A101A201A3018316860151
:10005A0083128601FF30831688000030831221063E
:10006A00031D392801302006031D4B28081E442889
:10007A000130A2000030A3000812A001A101881DCE
:10008A004A28A201A301A001A1017F28003021066C
:10009A00031D512802302006031D6328881C5C2892
:1000AA000130A2000030A3008810A001A101881D20
:1000BA006228A201A301A001A1017F28881C6E2841
:1000CA0022082304031D6E280130A0000030A1007D
:1000DA007F28081E792822082304031D7928023064
:1000EA00A0000030A1007F28A201A30188100812F5
:1000FA00A001A10100302106031D85280130200638
:10010A00031D89281B209C2800302106031D8F28E7
:10011A0002302006031D932820209C280030210647
:10012A00031D992800302006031D9C28162032281A
:02013A009D28FE
:02400E004A2F37
:00000001FF
