:020000001628C0
:0E000600831203132D088A002C0882000800C4
:1000140003208A110A128000840AAC0A0319AD0A6B
:08002400F003031D0A28080087
:10002C003F3083120313A0000630A1005B30A20006
:10003C004F30A3006630A4006D30A5007D30A600C3
:10004C000730A7007F30A8006F30A900AA01AB01D0
:10005C0083168601FF3083128600FF3083168800DA
:10006C0083122A08203E840000088600881E5D2822
:10007C000430FB000C30FC003330FD00FD0B442839
:10008C00FC0B4428FB0B44280000000080302B069E
:10009C00F00080307002031D552809302A02031825
:1000AC005B28AA0A0319AB0A5D28AA01AB01081F39
:1000BC0081280430FB000C30FC003330FD00FD0BBC
:1000CC006528FC0B6528FB0B6528000000008030C0
:1000DC00F00080302B067002031D76282A08003CA5
:1000EC0003187D280130AA02031CAB0381280930B8
:0A00FC00AA000030AB00362882286D
:02400E004A2F37
:00000001FF
